:03000000020A01F0
:0C0A0100787FE4F6D8FD75810F02095BD8
:080A0D000000000000000000E1
:1009A000E4FDFCED25E0FFEC338F82F5831208F6C1
:1009B00045F07011ED25E0FFEC338F82F583E4758F
:1009C000F00102092EED25E0FFEC338F82F583E480
:1009D000F5F012092E0DBD00010CED64044C70C33E
:0109E00022F4
:1009E100E4FDFCE4FBFAD3EB9FEA9E50070BBB004E
:0F09F100010A80F20DBD00010CBC03E7BDE9E473
:010A000022D3
:10095B0078087C007D007BFF7A0A790D7E007F088A
:10096B001208D07F647E001209E1E50E450F24FFCB
:10097B0092B0E50C450D24FF92B1E50A450B24FF1F
:10098B0092B6E508450924FF92B77B007A007908F7
:05099B001209A080CE4E
:10080000E709F608DFFA8046E709F208DFFA803EDA
:1008100088828C83E709F0A3DFFA8032E309F608C7
:10082000DFFA8078E309F208DFFA807088828C832F
:10083000E309F0A3DFFA806489828A83E0A3F608E3
:10084000DFFA805889828A83E0A3F208DFFA804CBD
:1008500080D280FA80C680D4806980F28033801094
:1008600080A680EA809A80A880DA80E280CA8033FD
:1008700089828A83ECFAE493A3C8C582C8CCC58375
:10088000CCF0A3C8C582C8CCC583CCDFE9DEE78045
:100890000D89828A83E493A3F608DFF9ECFAA9F0C4
:1008A000EDFB2289828A83ECFAE0A3C8C582C8CC1A
:1008B000C583CCF0A3C8C582C8CCC583CCDFEADE33
:1008C000E880DB89828A83E493A3F208DFF980CC95
:1008D00088F0EF60010E4E60C388F0ED2402B4048E
:1008E0000050B9F582EB2402B4040050AF23234535
:0608F00082239008507302
:1008F600BB0110E58229F582E5833AF583E0F5F040
:10090600A3E0225009E92582F886F008E622BBFE1C
:100916000AE92582F8E2F5F008E222E5832AF58362
:08092600E993F5F0A3E9932227
:10092E00F8BB0111E58229F582E5833AF583E8F0FB
:10093E00E5F0A3F0225009E92582C8F608A6F022B8
:0D094E00BBFE09E92582C8F2E5F008F2229F
:00000001FF
